:100000000C9462000C948A000C948A000C948A0070
:100010000C948A000C948A000C948A000C948A0038
:100020000C948A000C948A000C948A000C94E903C6
:100030000C948A000C948A000C948A000C948A0018
:100040000C949F030C948A000C946D030C9447034A
:100050000C948A000C948A000C948A000C948A00F8
:100060000C948A000C948A000000000024002700F1
:100070002A0000000000250028002B0000000000DE
:1000800023002600290004040404040404040202DA
:100090000202020203030303030301020408102007
:1000A0004080010204081020010204081020000012
:1000B0000008000201000003040700000000000027
:1000C0000000A50411241FBECFEFD8E0DEBFCDBFD6
:1000D00011E0A0E0B1E0E8E8FFE002C005900D9279
:1000E000A434B107D9F722E0A4E4B1E001C01D9225
:1000F000A336B207E1F710E0C2E6D0E004C02197D2
:10010000FE010E94BC07C136D107C9F70E94220533
:100110000C94C2070C940000E8E5F1E0A089B189D5
:1001200082E08C93A485B5851C92A685B78580E175
:100130008C93108EA489B58986E08C93A289B389AB
:100140008C9180618C93A289B3898C9188608C9307
:10015000A289B3898C9180688C930288F389E02D01
:1001600080818F7D80830895CF92DF92EF92FF92FE
:100170000F931F932FB7F894C0905401D09055015E
:10018000E0905601F09057012FBF6C0D7D1D8E1D24
:100190009F1D4FB7F8940091540110915501209183
:1001A0005601309157014FBF0C151D052E053F0517
:1001B00028F0601771078207930758F71F910F9176
:1001C000FF90EF90DF90CF900895AF92BF92CF92C3
:1001D000DF92EF92FF920F931F93CF93DF936C0107
:1001E0007B018B01040F151FEB015E01AE18BF08E8
:1001F000C017D10759F06991D601ED91FC9101909A
:10020000F081E02DC6010995892B79F7C501DF91B1
:10021000CF911F910F91FF90EF90DF90CF90BF9003
:10022000AF900895FC01538D448D252F30E0842F2D
:1002300090E0821B930B541710F0CF96089501970E
:100240000895FC01918D828D981761F0A28DAE0FFB
:10025000BF2FB11D5D968C91928D9F5F9F73928F82
:1002600090E008958FEF9FEF0895FC01918D828DAE
:10027000981731F0828DE80FF11D858D90E008957B
:100280008FEF9FEF0895FC01918D228D892F90E0D3
:10029000805C9F4F821B91098F739927089588E591
:1002A00091E00E94430121E0892B09F420E0822F94
:1002B000089580E090E0892B29F00E944F01811180
:1002C0000C9400000895FC01A48DA80FB92FB11D56
:1002D000A35ABF4F2C91848D90E001968F7399277C
:1002E000848FA689B7892C93A089B1898C9183705A
:1002F00080648C93938D848D981306C00288F38953
:10030000E02D80818F7D80830895EF92FF920F937F
:100310001F93CF93DF93EC0181E0888F9B8D8C8DB1
:1003200098131AC0E889F989808185FF15C09FB7A5
:10033000F894EE89FF896083E889F9898081837068
:10034000806480839FBF81E090E0DF91CF911F9117
:100350000F91FF90EF900895F62E0B8D10E00F5F38
:100360001F4F0F731127E02E8C8D8E110CC00FB60E
:1003700007FCFACFE889F989808185FFF5CFCE01A6
:100380000E946301F1CFEB8DEC0FFD2FF11DE35ABD
:10039000FF4FF0829FB7F8940B8FEA89FB89808129
:1003A0008062CFCFCF93DF93EC01888D8823B9F0A3
:1003B000AA89BB89E889F9898C9185FD03C0808170
:1003C00086FD0DC00FB607FCF7CF8C9185FFF2CFED
:1003D000808185FFEDCFCE010E946301E9CFDF91DF
:1003E000CF910895833081F028F4813099F08230E4
:1003F000A9F008958730A9F08830C9F08430B1F4AD
:10040000809180008F7D03C0809180008F778093E2
:100410008000089584B58F7784BD089584B58F7D5D
:10042000FBCF8091B0008F778093B00008958091CA
:10043000B0008F7DF9CF1F93CF93DF93282F30E04B
:10044000F901E255FF4F8491F901E656FF4FD4912F
:10045000F901EA57FF4FC491CC23A9F0162F81115F
:100460000E94F201EC2FF0E0EE0FFF1FEE58FF4F5D
:10047000A591B4918FB7F894EC91111108C0D09563
:10048000DE23DC938FBFDF91CF911F910895DE2B88
:10049000F8CFCF93DF9390E0FC01E656FF4F249115
:1004A0008A579F4FFC0184918823C9F090E0880F00
:1004B000991FFC01E859FF4FA591B491FC01EE583A
:1004C000FF4FC591D49161110DC09FB7F8948C91E5
:1004D000209582238C938881282328839FBFDF91D6
:1004E000CF910895623051F49FB7F8943C91822FD8
:1004F000809583238C93E8812E2BEFCF8FB7F894D0
:10050000EC912E2B2C938FBFEACF8E3008F08E50BB
:100510008770806480937C0080917A0080648093EF
:100520007A0080917A0086FDFCCF809178009091CE
:10053000790008953FB7F894809146019091470162
:10054000A0914801B091490126B5A89B05C02F3F55
:1005500019F00196A11DB11D3FBFBA2FA92F982FE9
:100560008827BC01CD01620F711D811D911D42E0E4
:10057000660F771F881F991F4A95D1F70895FC01D0
:1005800001900020E9F73197AF01481B590BBC01DE
:1005900088E591E00C94E5008F929F92AF92BF9214
:1005A000CF92DF92EF92FF920F931F93CF93DF933F
:1005B000CDB7DEB7A1970FB6F894DEBF0FBECDBFA3
:1005C0006B017C01F7FE41C06DE288E591E00E947D
:1005D00085018C0122273327A9012C193D094E09D9
:1005E0005F0919A2CE0181967C019AE0892E912C97
:1005F000A12CB12CCA01B901A50194010E944607A2
:10060000605DF70162937F012115310541055105B8
:1006100089F790E080E0309719F0CF010E94BF0287
:10062000800F911FA1960FB6F894DEBF0FBECDBF0D
:10063000DF91CF911F910F91FF90EF90DF90CF90BE
:10064000BF90AF909F908F900895AC019B0119A22D
:100650008E010F5D1F4F8AE0C82ED12CE12CF12CAA
:10066000CA01B901A70196010E944607605DF80121
:1006700062938F01211531054105510589F790E0FD
:1006800080E0309779F2CF010E94BF02CBCF1F925A
:100690000F920FB60F9211242F933F934F935F93B6
:1006A0006F937F938F939F93AF93BF93EF93FF933A
:1006B00088E591E00E946301FF91EF91BF91AF91B6
:1006C0009F918F917F916F915F914F913F912F916A
:1006D0000F900FBE0F901F9018951F920F920FB69C
:1006E0000F9211242F938F939F93EF93FF93E09199
:1006F0006801F09169018081E0916E01F0916F01D4
:1007000082FD1BC09081809171018F5F8F7320915A
:100710007201821741F0E0917101F0E0E85AFE4F5A
:10072000958F80937101FF91EF919F918F912F9100
:100730000F900FBE0F901F9018958081F4CF1F92DD
:100740000F920FB60F9211242F933F938F939F9385
:10075000AF93BF938091540190915501A0915601A0
:10076000B09157013091450123E0230F2D3758F503
:100770000196A11DB11D20934501809354019093D2
:100780005501A0935601B093570180914601909175
:100790004701A0914801B09149010196A11DB11DE9
:1007A0008093460190934701A0934801B09349017B
:1007B000BF91AF919F918F913F912F910F900FBE5D
:1007C0000F901F90189526E8230F0296A11DB11DCA
:1007D000D2CF1F920F920FB60F9211242F933F93F7
:1007E0004F935F936F937F938F939F93AF93BF9339
:1007F000CF93DF93EF93FF9380914401C0915F0209
:10080000D0E087FF24C01092850010928400809170
:1008100044018F5F8093440180914401082E000CB5
:10082000990B8C179D0724F4809144018C30C4F1FE
:100830008091840090918500049680349C4908F44E
:100840007AC08091840090918500049676C0809152
:100850004401082E000C990B8C179D07C4F6E091FB
:1008600044018E2FEE0F990BFC01EE0FFF1FE80FD6
:10087000F91FE55CFD4F808186FFC9CFE0914401FF
:100880008E2FEE0F990BFC01EE0FFF1FE80FF91FE3
:10089000E55CFD4F808160E08F730E941B02B7CF43
:1008A0002091840030918500E09144018E2FEE0F5D
:1008B000990BFC01EE0FFF1FE80FF91FE55CFD4FE0
:1008C00081819281820F931F909389008093880089
:1008D000E09144018E2FEE0F990BFC01EE0FFF1FEC
:1008E000E80FF91FE55CFD4F808186FF11C0E091A4
:1008F00044018E2FEE0F990BFC01EE0FFF1FE80F46
:10090000F91FE55CFD4F808161E08F730E941B023F
:10091000FF91EF91DF91CF91BF91AF919F918F9117
:100920007F916F915F914F913F912F910F900FBEEB
:100930000F901F90189580E49CE990938900809314
:1009400088008FEF80934401E3CF10925B011092F7
:100950005A0188EE93E0A0E0B0E080935C019093B0
:100960005D01A0935E01B0935F0184E091E09093FC
:1009700059018093580185EC90E090936501809334
:10098000640184EC90E0909367018093660180ECB1
:1009900090E0909369018093680181EC90E09093DE
:1009A0006B0180936A0182EC90E090936D018093DB
:1009B0006C0186EC90E090936F0180936E01109231
:1009C00071011092720110927301109274011092D1
:1009D000FB011092FC011092FD011092FE01109299
:1009E000FF01109200021092010210920202109276
:1009F0000302109204021092050210920602109255
:100A00000702109208021092090210920A028091C5
:100A10005F028C3098F491E0980F90935F0280937E
:100A2000600290E0FC01EE0FFF1FE80FF91FE55C8C
:100A3000FD4F88EB9BE09283818308958FEF809335
:100A400060020895789484B5826084BD84B5816025
:100A500084BD85B5826085BD85B5816085BD809189
:100A60006E00816080936E00109281008091810001
:100A700082608093810080918100816080938100F9
:100A8000809180008160809380008091B1008460BB
:100A90008093B1008091B00081608093B00080911C
:100AA0007A00846080937A0080917A0082608093DB
:100AB0007A0080917A00816080937A0080917A0038
:100AC000806880937A001092C100109237021092D1
:100AD00038021092390210923A021092F7011092E5
:100AE000F8011092F9011092FA0168EB7BE080E0C6
:100AF00090E00E94B4000E949A024B015C01C8EE93
:100B0000CC2EC3E0DC2EE12CF12C0E949A02681955
:100B100079098A099B09683E734081059105A8F30C
:100B200021E0C21AD108E108F10838EE830E33E063
:100B3000931EA11CB11CC114D104E104F10429F7D6
:100B40000E948C002FB7F894809154019091550128
:100B5000A0915601B09157012FBF8093F701909358
:100B6000F801A093F901B093FA0182E191E00E94AB
:100B7000BF026AE070E080E090E00E94B40081E093
:100B800080930B022FB7F8948091540190915501F6
:100B9000A0915601B09157012FBF8093F701909318
:100BA000F801A093F901B093FA0183E291E00E9469
:100BB000BF020E948C0060E080E10E94490260E078
:100BC00081E10E94490262E082E00E944902809134
:100BD00060028C3008F051C061E085E00E9449025B
:100BE00080916002282F30E0F901EE0FFF1FE20F25
:100BF000F31FE55CFD4F9081907C9560908310928F
:100C00006102109262022CE0622F0E94A907829F6B
:100C1000B001112430E020E0AB01420F531FFA0174
:100C2000EE0FFF1FE40FF51FE55CFD4F908196FD71
:100C300016C02F5F3F4F2C30310571F781110FC067
:100C40001092800082E080938100109285001092C3
:100C50008400B19A80916F00826080936F00E09170
:100C600060028E2F90E0FC01EE0FFF1FE80FF91FCE
:100C7000E55CFD4F808180648083CC24CA9493E03E
:100C8000D92EE12CF12C28E5222E22E0322E80E113
:100C90000E948502EC01909353018093520181E1FF
:100CA0000E9485028C019093510180935001E0EBEA
:100CB000F0E08491ECE9F0E07490E8E8F0E0649012
:100CC000662009F4E0C081110E94F201E62DF0E0F7
:100CD000EE0FFF1FE458FF4FA591B4918C9178223D
:100CE00091E080E009F490E090934E0180934F01F1
:100CF00024EB30E0DE010E94B507A70196010E94B7
:100D000068072901E90130934D0120934C0124EB40
:100D100030E0D8010E94B507A70196010E9468073C
:100D200030934B0120934A01F0E24F16F2E05F0648
:100D3000D4F580916102C8E8D0E0C81BD10987FDD5
:100D4000D395CC0FDD1FCC0FDD1F4E01DD0FAA08A0
:100D5000BB08809162029101281B310987FD339500
:100D6000220F331F220F331F032E000C440B550B91
:100D7000281939094A095B09D201A53BB10514F0CC
:100D8000A4EBB0E0B7FF02C0B0E0A0E00E94920781
:100D900024EB30E040E050E00E946807280D391D48
:100DA0004A1D5B1DE901409160024C3088F580913D
:100DB000610228E830E0281B310987FD3395C9011D
:100DC000880F991F880F991FC817D90784F0809141
:100DD0006202F101E81BF10987FDF395CF01880F4D
:100DE000991F880F991FC817D9070CF4CE010297D5
:100DF000880F991F6FB7F89450E09A01220F331FA4
:100E0000240F351FF901E55CFD4F928381836FBF8D
:100E10008AE291E00E94BF0260914C0170914D0105
:100E2000072E000C880B990B0E94CC028EE291E0F9
:100E30000E94BF0260914A0170914B01072E000C85
:100E4000880B990B0E94CC0285E391E00E94BF02BF
:100E500060914E0170914F01072E000C880B990B89
:100E60000E94CC0281E491E00E94BF0220E030E0C9
:100E7000232B09F40CCF0E944F01882309F407CFDC
:100E80000E94000004CF90E080E02ECFA1E21A2E55
:100E9000AA1BBB1BFD010DC0AA1FBB1FEE1FFF1F1E
:100EA000A217B307E407F50720F0A21BB30BE40B6E
:100EB000F50B661F771F881F991F1A9469F76095B5
:100EC0007095809590959B01AC01BD01CF0108956F
:100ED000052E97FB1EF400940E947F0757FD07D054
:100EE0000E94460707FC03D04EF40C947F075095F0
:100EF0004095309521953F4F4F4F5F4F0895909506
:100F00008095709561957F4F8F4F9F4F08950E94F8
:100F10009A07A59F900DB49F900DA49F800D911DE1
:100F200011240895B7FF0C9487070E948707821B3E
:100F3000930B0895A29FB001B39FC001A39F700DB2
:100F4000811D1124911DB29F700D811D1124911DD1
:100F50000895991B79E004C0991F961708F0961B15
:100F6000881F7A95C9F7809508950E949A07B7FF60
:100F70000895821B930B0895EE0FFF1F0590F491C7
:080F8000E02D0994F894FFCF65
:100F8800000000008501E5001201D20143012101A2
:100F98003501564D4450565F317C315F564D4450B3
:100FA800560A00564D4450525F00583A2000207CA3
:100FB80020593A2000207C20427574746F6E3A20C4
:040FC800000D0A000E
:107E0000112484B714BE81FFF0D085E080938100F7
:107E100082E08093C00088E18093C10086E0809377
:107E2000C20080E18093C4008EE0C9D0259A86E02C
:107E300020E33CEF91E0309385002093840096BBD3
:107E4000B09BFECF1D9AA8958150A9F7CC24DD24C4
:107E500088248394B5E0AB2EA1E19A2EF3E0BF2EE7
:107E6000A2D0813461F49FD0082FAFD0023811F036
:107E7000013811F484E001C083E08DD089C08234E0
:107E800011F484E103C0853419F485E0A6D080C0E4
:107E9000853579F488D0E82EFF2485D0082F10E0AE
:107EA000102F00270E291F29000F111F8ED06801E7
:107EB0006FC0863521F484E090D080E0DECF843638
:107EC00009F040C070D06FD0082F6DD080E0C81688
:107ED00080E7D80618F4F601B7BEE895C0E0D1E017
:107EE00062D089930C17E1F7F0E0CF16F0E7DF06D8
:107EF00018F0F601B7BEE89568D007B600FCFDCFD4
:107F0000A601A0E0B1E02C9130E011968C91119780
:107F100090E0982F8827822B932B1296FA010C0160
:107F200087BEE89511244E5F5F4FF1E0A038BF0790
:107F300051F7F601A7BEE89507B600FCFDCF97BE46
:107F4000E89526C08437B1F42ED02DD0F82E2BD052
:107F50003CD0F601EF2C8F010F5F1F4F84911BD097
:107F6000EA94F801C1F70894C11CD11CFA94CF0C13
:107F7000D11C0EC0853739F428D08EE10CD085E9AC
:107F80000AD08FE07ACF813511F488E018D01DD067
:107F900080E101D065CF982F8091C00085FFFCCF94
:107FA0009093C60008958091C00087FFFCCF809118
:107FB000C00084FD01C0A8958091C6000895E0E648
:107FC000F0E098E1908380830895EDDF803219F02E
:107FD00088E0F5DFFFCF84E1DECF1F93182FE3DFCA
:107FE0001150E9F7F2DF1F91089580E0E8DFEE27F6
:047FF000FF270994CA
:027FFE00040479
:0400000300007E007B
:00000001FF