:100000000C9462000C948A000C948A000C948A0070
:100010000C948A000C948A000C948A000C948A0038
:100020000C948A000C948A000C948A000C946B0344
:100030000C948A000C948A000C948A000C948A0018
:100040000C94C9020C948A000C9439030C94130389
:100050000C948A000C948A000C948A000C948A00F8
:100060000C948A000C948A000000000024002700F1
:100070002A0000000000250028002B0000000000DE
:1000800023002600290004040404040404040202DA
:100090000202020203030303030301020408102007
:1000A0004080010204081020010204081020000012
:1000B0000008000201000003040700000000000027
:1000C0000000270411241FBECFEFD8E0DEBFCDBF54
:1000D00011E0A0E0B1E0EAECFDE002C005900D9275
:1000E000AC32B107D9F722E0ACE2B1E001C01D9219
:1000F000A530B207E1F710E0C2E6D0E004C02197D6
:10010000FE010E94DD06C136D107C9F70E948404B2
:100110000C94E3060C940000AF92BF92CF92DF9252
:10012000EF92FF920F931F93CF93DF936C017B01AC
:100130008B01040F151FEB015E01AE18BF08C0173D
:10014000D10759F06991D601ED91FC910190F081B0
:10015000E02DC6010995892B79F7C501DF91CF9173
:100160001F910F91FF90EF90DF90CF90BF90AF90D5
:100170000895FC01538D448D252F30E0842F90E0AD
:10018000821B930B541710F0CF9608950197089592
:10019000FC01918D828D981761F0A28DAE0FBF2F5B
:1001A000B11D5D968C91928D9F5F9F73928F90E0B1
:1001B00008958FEF9FEF0895FC01918D828D981720
:1001C00031F0828DE80FF11D858D90E008958FEF5D
:1001D0009FEF0895FC01918D228D892F90E0805C26
:1001E0009F4F821B91098F739927089580E491E0B6
:1001F0000E94EA0021E0892B09F420E0822F089573
:1002000080E090E0892B29F00E94F60081110C9487
:1002100000000895FC01A48DA80FB92FB11DA35AA9
:10022000BF4F2C91848D90E001968F739927848F16
:10023000A689B7892C93A089B1898C918370806439
:100240008C93938D848D981306C00288F389E02DDA
:1002500080818F7D80830895EF92FF920F931F938B
:10026000CF93DF93EC0181E0888F9B8D8C8D981369
:100270001AC0E889F989808185FF15C09FB7F89475
:10028000EE89FF896083E889F989808183708064C1
:1002900080839FBF81E090E0DF91CF911F910F910C
:1002A000FF90EF900895F62E0B8D10E00F5F1F4F1B
:1002B0000F731127E02E8C8D8E110CC00FB607FC2A
:1002C000FACFE889F989808185FFF5CFCE010E94B8
:1002D0000A01F1CFEB8DEC0FFD2FF11DE35AFF4F1B
:1002E000F0829FB7F8940B8FEA89FB898081806246
:1002F000CFCFCF93DF93EC01888D8823B9F0AA8903
:10030000BB89E889F9898C9185FD03C0808186FDD0
:100310000DC00FB607FCF7CF8C9185FFF2CF80811F
:1003200085FFEDCFCE010E940A01E9CFDF91CF9189
:100330000895833081F028F4813099F08230A9F05B
:1003400008958730A9F08830C9F08430B1F48091E5
:1003500080008F7D03C0809180008F778093800024
:10036000089584B58F7784BD089584B58F7DFBCFC4
:100370008091B0008F778093B00008958091B00095
:100380008F7DF9CF1F93CF93DF93282F30E0F901B2
:10039000E255FF4F8491F901E656FF4FD491F901E0
:1003A000EA57FF4FC491CC23A9F0162F81110E9468
:1003B0009901EC2FF0E0EE0FFF1FEE58FF4FA591D3
:1003C000B4918FB7F894EC91111108C0D095DE2349
:1003D000DC938FBFDF91CF911F910895DE2BF8CF73
:1003E000CF93DF9390E0FC01E656FF4F24918A57AC
:1003F0009F4FFC0184918823C9F090E0880F991FDA
:10040000FC01E859FF4FA591B491FC01EE58FF4F54
:10041000C591D49161110DC09FB7F8948C9120952E
:1004200082238C938881282328839FBFDF91CF91DB
:100430000895623051F49FB7F8943C91822F8095D3
:1004400083238C93E8812E2BEFCF8FB7F894EC9118
:100450002E2B2C938FBFEACF8E3008F08E508770F2
:10046000806480937C0080917A00806480937A001D
:1004700080917A0086FDFCCF809178009091790080
:100480000895FC0101900020E9F73197AF01481B66
:10049000590BBC0180E491E00C948C008F929F92E8
:1004A000AF92BF92CF92DF92EF92FF920F931F9382
:1004B000CF93DF93CDB7DEB7A1970FB6F894DEBF29
:1004C0000FBECDBF6B017C01F7FE41C06DE280E441
:1004D00091E00E942C018C0122273327A9012C19BD
:1004E0003D094E095F0919A2CE0181967C019AE06F
:1004F000892E912CA12CB12CCA01B901A50194011E
:100500000E949906605DF70162937F012115310514
:100510004105510589F790E080E0309719F0CF014F
:100520000E944102800F911FA1960FB6F894DEBF82
:100530000FBECDBFDF91CF911F910F91FF90EF9034
:10054000DF90CF90BF90AF909F908F900895AC01B7
:100550009B0119A28E010F5D1F4F8AE0C82ED12C7E
:10056000E12CF12CCA01B901A70196010E9499065C
:10057000605DF80162938F01211531054105510538
:1005800089F790E080E0309779F2CF010E94410234
:10059000CBCF1F920F920FB60F9211242F933F9340
:1005A0008F939F93AF93BF9380913C0190913D01B6
:1005B000A0913E01B0913F0130913B0123E0230F18
:1005C0002D3758F50196A11DB11D20933B01809355
:1005D0003C0190933D01A0933E01B0933F01809177
:1005E000370190913801A0913901B0913A010196FB
:1005F000A11DB11D8093370190933801A09339015B
:10060000B0933A01BF91AF919F918F913F912F91FC
:100610000F900FBE0F901F90189526E8230F02969B
:10062000A11DB11DD2CF1F920F920FB60F921124B0
:100630002F933F934F935F936F937F938F939F93EA
:10064000AF93BF93EF93FF9380E491E00E940A0180
:10065000FF91EF91BF91AF919F918F917F916F919A
:100660005F914F913F912F910F900FBE0F901F9070
:1006700018951F920F920FB60F9211242F938F93FC
:100680009F93EF93FF93E0915001F091510180818E
:10069000E0915601F091570182FD1BC0908180913D
:1006A00059018F5F8F7320915A01821741F0E091B9
:1006B0005901F0E0E05CFE4F958F80935901FF9166
:1006C000EF919F918F912F910F900FBE0F901F90E0
:1006D00018958081F4CF1F920F920FB60F921124BC
:1006E0002F933F934F935F936F937F938F939F933A
:1006F000AF93BF93CF93DF93EF93FF9380912C0140
:10070000C0910102D0E087FF24C0109285001092B2
:10071000840080912C018F5F80932C0180912C01AB
:10072000082E000C990B8C179D0724F480912C0146
:100730008C30C4F1809184009091850004968034BF
:100740009C4908F47AC080918400909185000496B9
:1007500076C080912C01082E000C990B8C179D07F8
:10076000C4F6E0912C018E2FEE0F990BFC01EE0FD9
:10077000FF1FE80FF91FE352FE4F808186FFC9CFAC
:10078000E0912C018E2FEE0F990BFC01EE0FFF1F55
:10079000E80FF91FE352FE4F808160E08F730E94E3
:1007A000C201B7CF2091840030918500E0912C01E7
:1007B0008E2FEE0F990BFC01EE0FFF1FE80FF91FB4
:1007C000E352FE4F81819281820F931F90938900A3
:1007D00080938800E0912C018E2FEE0F990BFC0185
:1007E000EE0FFF1FE80FF91FE352FE4F808186FFD7
:1007F00011C0E0912C018E2FEE0F990BFC01EE0F32
:10080000FF1FE80FF91FE352FE4F808161E08F73F5
:100810000E94C201FF91EF91DF91CF91BF91AF9103
:100820009F918F917F916F915F914F913F912F9108
:100830000F900FBE0F901F90189580E49CE9909345
:100840008900809388008FEF80932C01E3CF109272
:1008500043011092420188EE93E0A0E0B0E0809363
:10086000440190934501A0934601B093470184E071
:1008700091E0909341018093400185EC90E090934A
:100880004D0180934C0184EC90E090934F01809354
:100890004E0180EC90E0909351018093500181ECE7
:1008A00090E0909353018093520182EC90E09093FA
:1008B00055018093540186EC90E09093570180930A
:1008C00056011092590110925A0110925B01109238
:1008D0005C01809101028C3098F491E0980F909324
:1008E00001028093020290E0FC01EE0FFF1FE80F6F
:1008F000F91FE352FE4F88EB9BE0928381830895BA
:100900008FEF809302020895789484B5826084BD4D
:1009100084B5816084BD85B5826085BD85B5816003
:1009200085BD80916E00816080936E001092810081
:10093000809181008260809381008091810081603C
:1009400080938100809180008160809380008091FD
:10095000B10084608093B1008091B0008160809389
:10096000B00080917A00846080937A0080917A0050
:10097000826080937A0080917A00816080937A000F
:1009800080917A00806880937A001092C100E09193
:100990005001F091510182E08083E0914C01F0918F
:1009A0004D011082E0914E01F0914F018FEC808358
:1009B00010925801E0915401F091550186E0808336
:1009C000E0915201F0915301808180618083E09138
:1009D0005201F0915301808188608083E09152013F
:1009E000F0915301808180688083E0915201F09101
:1009F000530180818F7D808360E080E10E94F0015F
:100A000060E081E10E94F00162E082E00E94F0017A
:100A1000809102028C3008F051C061E085E00E94B4
:100A2000F00180910202282F30E0F901EE0FFF1F44
:100A3000E20FF31FE352FE4F9081907C956090830C
:100A400010920302109204022CE0622F0E94CA0648
:100A5000829FB001112430E020E0AB01420F531F10
:100A6000FA01EE0FFF1FE40FF51FE352FE4F9081D6
:100A700096FD16C02F5F3F4F2C30310571F7811165
:100A80000FC01092800082E0809381001092850058
:100A900010928400B19A80916F00826080936F0001
:100AA000E09102028E2F90E0FC01EE0FFF1FE80F95
:100AB000F91FE352FE4F808180648083CC24CA9466
:100AC00093E0D92EE12CF12C28E5222E22E0322EC3
:100AD00080E10E942C02EC01909336018093350155
:100AE00081E10E942C028C019093340180933301A8
:100AF000E0EBF0E08491ECE9F0E07490E8E8F0E0FD
:100B00006490662009F4E0C081110E949901E62DED
:100B1000F0E0EE0FFF1FE458FF4FA591B4918C91C8
:100B2000782291E080E009F490E090933101809385
:100B3000320124EB30E0DE010E94D606A7019601C7
:100B40000E9467062901E9013093300120932F01AB
:100B500024EB30E0D8010E94D606A70196010E943E
:100B6000670630932E0120932D01F0E24F16F2E03C
:100B70005F06D4F580910302C8E8D0E0C81BD10914
:100B800087FDD395CC0FDD1FCC0FDD1F4E01DD0F90
:100B9000AA08BB08809104029101281B310987FD36
:100BA0003395220F331F220F331F032E000C440BEB
:100BB000550B281939094A095B09D201A53BB10532
:100BC00014F0A4EBB0E0B7FF02C0B0E0A0E00E94D8
:100BD000910624EB30E040E050E00E946706280DCB
:100BE000391D4A1D5B1DE901409102024C3088F518
:100BF0008091030228E830E0281B310987FD3395F6
:100C0000C901880F991F880F991FC817D90784F049
:100C100080910402F101E81BF10987FDF395CF01F2
:100C2000880F991F880F991FC817D9070CF4CE0198
:100C30000297880F991F6FB7F89450E09A01220F1E
:100C4000331F240F351FF901E352FE4F9283818336
:100C50006FBF82E191E00E94410260912F0170918B
:100C60003001072E000C880B990B0E944E0286E182
:100C700091E00E94410260912D0170912E01072E9A
:100C8000000C880B990B0E944E028DE191E00E94AE
:100C900041026091310170913201072E000C880BE6
:100CA000990B0E944E0289E291E00E94410220E0ED
:100CB00030E0232B09F40CCF0E94F600882309F4BE
:100CC00007CF0E94000004CF90E080E02ECF052ED9
:100CD00097FB1EF400940E947E0657FD07D00E94E9
:100CE000990607FC03D04EF40C947E06509540956F
:100CF000309521953F4F4F4F5F4F089590958095C8
:100D0000709561957F4F8F4F9F4F08950E94BB064E
:100D1000A59F900DB49F900DA49F800D911D11244F
:100D20000895B7FF0C9486060E948606821B930BDB
:100D30000895A1E21A2EAA1BBB1BFD010DC0AA1F1C
:100D4000BB1FEE1FFF1FA217B307E407F50720F034
:100D5000A21BB30BE40BF50B661F771F881F991FAF
:100D60001A9469F760957095809590959B01AC01F8
:100D7000BD01CF010895A29FB001B39FC001A39F01
:100D8000700D811D1124911DB29F700D811D1124C4
:100D9000911D0895991B79E004C0991F961708F0DA
:100DA000961B881F7A95C9F7809508950E94BB0607
:100DB000B7FF0895821B930B0895EE0FFF1F059058
:0A0DC000F491E02D0994F894FFCFA0
:100DCA00000000002C018C00B9007901EA00C8007B
:100DDA00DC00583A2000207C20593A2000207C2050
:0C0DEA00427574746F6E3A20000D0A0010
:107E0000112484B714BE81FFF0D085E080938100F7
:107E100082E08093C00088E18093C10086E0809377
:107E2000C20080E18093C4008EE0C9D0259A86E02C
:107E300020E33CEF91E0309385002093840096BBD3
:107E4000B09BFECF1D9AA8958150A9F7CC24DD24C4
:107E500088248394B5E0AB2EA1E19A2EF3E0BF2EE7
:107E6000A2D0813461F49FD0082FAFD0023811F036
:107E7000013811F484E001C083E08DD089C08234E0
:107E800011F484E103C0853419F485E0A6D080C0E4
:107E9000853579F488D0E82EFF2485D0082F10E0AE
:107EA000102F00270E291F29000F111F8ED06801E7
:107EB0006FC0863521F484E090D080E0DECF843638
:107EC00009F040C070D06FD0082F6DD080E0C81688
:107ED00080E7D80618F4F601B7BEE895C0E0D1E017
:107EE00062D089930C17E1F7F0E0CF16F0E7DF06D8
:107EF00018F0F601B7BEE89568D007B600FCFDCFD4
:107F0000A601A0E0B1E02C9130E011968C91119780
:107F100090E0982F8827822B932B1296FA010C0160
:107F200087BEE89511244E5F5F4FF1E0A038BF0790
:107F300051F7F601A7BEE89507B600FCFDCF97BE46
:107F4000E89526C08437B1F42ED02DD0F82E2BD052
:107F50003CD0F601EF2C8F010F5F1F4F84911BD097
:107F6000EA94F801C1F70894C11CD11CFA94CF0C13
:107F7000D11C0EC0853739F428D08EE10CD085E9AC
:107F80000AD08FE07ACF813511F488E018D01DD067
:107F900080E101D065CF982F8091C00085FFFCCF94
:107FA0009093C60008958091C00087FFFCCF809118
:107FB000C00084FD01C0A8958091C6000895E0E648
:107FC000F0E098E1908380830895EDDF803219F02E
:107FD00088E0F5DFFFCF84E1DECF1F93182FE3DFCA
:107FE0001150E9F7F2DF1F91089580E0E8DFEE27F6
:047FF000FF270994CA
:027FFE00040479
:0400000300007E007B
:00000001FF